{
	"_format": "hh-sol-artifact-1",
	"contractName": "Tombola",
	"sourceName": "contracts/Tombola.sol",
	"abi": [
		{
			"inputs": [],
			"stateMutability": "nonpayable",
			"type": "constructor"
		},
		{
			"anonymous": false,
			"inputs": [
				{
					"indexed": false,
					"internalType": "address",
					"name": "winner1",
					"type": "address"
				},
				{
					"indexed": false,
					"internalType": "address",
					"name": "winner2",
					"type": "address"
				}
			],
			"name": "FinalizareTombola",
			"type": "event"
		},
		{
			"inputs": [],
			"name": "finalizareTombola",
			"outputs": [
				{
					"internalType": "address",
					"name": "",
					"type": "address"
				},
				{
					"internalType": "address",
					"name": "",
					"type": "address"
				}
			],
			"stateMutability": "nonpayable",
			"type": "function"
		},
		{
			"inputs": [],
			"name": "getPrice",
			"outputs": [
				{
					"internalType": "uint256",
					"name": "",
					"type": "uint256"
				}
			],
			"stateMutability": "view",
			"type": "function"
		},
		{
			"inputs": [],
			"name": "getPrizePool",
			"outputs": [
				{
					"internalType": "uint256",
					"name": "",
					"type": "uint256"
				}
			],
			"stateMutability": "view",
			"type": "function"
		},
		{
			"inputs": [],
			"name": "getState",
			"outputs": [
				{
					"internalType": "bool",
					"name": "",
					"type": "bool"
				}
			],
			"stateMutability": "view",
			"type": "function"
		},
		{
			"inputs": [],
			"name": "owner",
			"outputs": [
				{
					"internalType": "address payable",
					"name": "",
					"type": "address"
				}
			],
			"stateMutability": "view",
			"type": "function"
		},
		{
			"inputs": [
				{
					"internalType": "string",
					"name": "_name",
					"type": "string"
				},
				{
					"internalType": "uint256",
					"name": "_startTime",
					"type": "uint256"
				},
				{
					"internalType": "uint256",
					"name": "_ticketPrice",
					"type": "uint256"
				}
			],
			"name": "startTombola",
			"outputs": [],
			"stateMutability": "nonpayable",
			"type": "function"
		},
		{
			"inputs": [],
			"name": "tombola",
			"outputs": [
				{
					"internalType": "string",
					"name": "name",
					"type": "string"
				},
				{
					"internalType": "uint256",
					"name": "startTime",
					"type": "uint256"
				},
				{
					"internalType": "bool",
					"name": "isRunning",
					"type": "bool"
				},
				{
					"internalType": "uint256",
					"name": "price",
					"type": "uint256"
				}
			],
			"stateMutability": "view",
			"type": "function"
		},
		{
			"inputs": [],
			"name": "withdraw",
			"outputs": [],
			"stateMutability": "nonpayable",
			"type": "function"
		},
		{
			"stateMutability": "payable",
			"type": "receive"
		}
	],
	"bytecode": "0x608060405234801561001057600080fd5b50336000806101000a81548173ffffffffffffffffffffffffffffffffffffffff021916908373ffffffffffffffffffffffffffffffffffffffff1602179055506116fb806100606000396000f3fe60806040526004361061007f5760003560e01c8063884bf67c1161004e578063884bf67c1461012a5780638da5cb5b1461015557806398d5fdca14610180578063bcacfcae146101ab5761008e565b80631865c57d146100935780632c5aebce146100be5780633ccfd60b146100e75780633cfed46c146100fe5761008e565b3661008e5761008c6101d9565b005b600080fd5b34801561009f57600080fd5b506100a86103dc565b6040516100b59190610ff1565b60405180910390f35b3480156100ca57600080fd5b506100e560048036038101906100e09190610d71565b6103f6565b005b3480156100f357600080fd5b506100fc610575565b005b34801561010a57600080fd5b506101136106c5565b604051610121929190610fc8565b60405180910390f35b34801561013657600080fd5b5061013f610aec565b60405161014c9190611138565b60405180910390f35b34801561016157600080fd5b5061016a610b0c565b6040516101779190610fad565b60405180910390f35b34801561018c57600080fd5b50610195610b30565b6040516101a29190611138565b60405180910390f35b3480156101b757600080fd5b506101c0610b3d565b6040516101d0949392919061100c565b60405180910390f35b60011515600160020160009054906101000a900460ff16151514610232576040517f08c379a000000000000000000000000000000000000000000000000000000000815260040161022990611118565b60405180910390fd5b6001600401543414610279576040517f08c379a0000000000000000000000000000000000000000000000000000000008152600401610270906110d8565b60405180910390fd5b60005b600160030180549050811015610373573373ffffffffffffffffffffffffffffffffffffffff16600160030182815481106102e0577f4e487b7100000000000000000000000000000000000000000000000000000000600052603260045260246000fd5b9060005260206000200160009054906101000a900473ffffffffffffffffffffffffffffffffffffffff1673ffffffffffffffffffffffffffffffffffffffff161415610362576040517f08c379a0000000000000000000000000000000000000000000000000000000008152600401610359906110f8565b60405180910390fd5b8061036c9061134f565b905061027c565b506001600301339080600181540180825580915050600190039060005260206000200160009091909190916101000a81548173ffffffffffffffffffffffffffffffffffffffff021916908373ffffffffffffffffffffffffffffffffffffffff160217905550565b6000600160020160009054906101000a900460ff16905090565b60008054906101000a900473ffffffffffffffffffffffffffffffffffffffff1673ffffffffffffffffffffffffffffffffffffffff163373ffffffffffffffffffffffffffffffffffffffff1614610484576040517f08c379a000000000000000000000000000000000000000000000000000000000815260040161047b90611098565b60405180910390fd5b60001515600160020160009054906101000a900460ff161515146104dd576040517f08c379a00000000000000000000000000000000000000000000000000000000081526004016104d4906110b8565b60405180910390fd5b6001600080820160006104f09190610bf0565b60018201600090556002820160006101000a81549060ff021916905560038201600061051c9190610c30565b60048201600090555050826001600001908051906020019061053f929190610c51565b508160018001819055508060016004018190555060018060020160006101000a81548160ff021916908315150217905550505050565b60008054906101000a900473ffffffffffffffffffffffffffffffffffffffff1673ffffffffffffffffffffffffffffffffffffffff163373ffffffffffffffffffffffffffffffffffffffff1614610603576040517f08c379a00000000000000000000000000000000000000000000000000000000081526004016105fa90611098565b60405180910390fd5b60001515600160020160009054906101000a900460ff1615151461065c576040517f08c379a000000000000000000000000000000000000000000000000000000000815260040161065390611058565b60405180910390fd5b60008054906101000a900473ffffffffffffffffffffffffffffffffffffffff1673ffffffffffffffffffffffffffffffffffffffff166108fc479081150290604051600060405180830381858888f193505050501580156106c2573d6000803e3d6000fd5b50565b60008060008054906101000a900473ffffffffffffffffffffffffffffffffffffffff1673ffffffffffffffffffffffffffffffffffffffff163373ffffffffffffffffffffffffffffffffffffffff1614610756576040517f08c379a000000000000000000000000000000000000000000000000000000000815260040161074d90611098565b60405180910390fd5b600060016003018054905014156107b55760016000808201600061077a9190610bf0565b60018201600090556002820160006101000a81549060ff02191690556003820160006107a69190610c30565b60048201600090555050610ae7565b6000600160030180549050905060028111610805576040517f08c379a00000000000000000000000000000000000000000000000000000000081526004016107fc90611078565b60405180910390fd5b60008160016004015461081891906111f6565b905060008233428560405160200161083293929190610f70565b6040516020818303038152906040528051906020012060001c61085591906113c6565b9050600060016003018281548110610896577f4e487b7100000000000000000000000000000000000000000000000000000000600052603260045260246000fd5b9060005260206000200160009054906101000a900473ffffffffffffffffffffffffffffffffffffffff169050600060466064856108d491906111c5565b6108de91906111f6565b90508173ffffffffffffffffffffffffffffffffffffffff166108fc829081150290604051600060405180830381858888f19350505050158015610926573d6000803e3d6000fd5b5060008533428660405160200161093f93929190610f70565b6040516020818303038152906040528051906020012060001c61096291906113c6565b90505b808414156109ad578533428360405160200161098393929190610f70565b6040516020818303038152906040528051906020012060001c6109a691906113c6565b9050610965565b6000600160030182815481106109ec577f4e487b7100000000000000000000000000000000000000000000000000000000600052603260045260246000fd5b9060005260206000200160009054906101000a900473ffffffffffffffffffffffffffffffffffffffff16905060006019606488610a2a91906111c5565b610a3491906111f6565b90508173ffffffffffffffffffffffffffffffffffffffff166108fc829081150290604051600060405180830381858888f19350505050158015610a7c573d6000803e3d6000fd5b506000600160020160006101000a81548160ff0219169083151502179055507fe35f89c7642a4f871c822dd571d061964a560854875264fab44c603396ede4448583604051610acc929190610fc8565b60405180910390a18482995099505050505050505050610ae8565b5b9091565b6000600160040154600160030180549050610b0791906111f6565b905090565b60008054906101000a900473ffffffffffffffffffffffffffffffffffffffff1681565b6000600160040154905090565b6001806000018054610b4e906112ec565b80601f0160208091040260200160405190810160405280929190818152602001828054610b7a906112ec565b8015610bc75780601f10610b9c57610100808354040283529160200191610bc7565b820191906000526020600020905b815481529060010190602001808311610baa57829003601f168201915b5050505050908060010154908060020160009054906101000a900460ff16908060040154905084565b508054610bfc906112ec565b6000825580601f10610c0e5750610c2d565b601f016020900490600052602060002090810190610c2c9190610cd7565b5b50565b5080546000825590600052602060002090810190610c4e9190610cd7565b50565b828054610c5d906112ec565b90600052602060002090601f016020900481019282610c7f5760008555610cc6565b82601f10610c9857805160ff1916838001178555610cc6565b82800160010185558215610cc6579182015b82811115610cc5578251825591602001919060010190610caa565b5b509050610cd39190610cd7565b5090565b5b80821115610cf0576000816000905550600101610cd8565b5090565b6000610d07610d0284611178565b611153565b905082815260208101848484011115610d1f57600080fd5b610d2a8482856112aa565b509392505050565b600082601f830112610d4357600080fd5b8135610d53848260208601610cf4565b91505092915050565b600081359050610d6b816116ae565b92915050565b600080600060608486031215610d8657600080fd5b600084013567ffffffffffffffff811115610da057600080fd5b610dac86828701610d32565b9350506020610dbd86828701610d5c565b9250506040610dce86828701610d5c565b9150509250925092565b610de181611262565b82525050565b610df081611250565b82525050565b610e07610e0282611250565b611398565b82525050565b610e1681611274565b82525050565b6000610e27826111a9565b610e3181856111b4565b9350610e418185602086016112b9565b610e4a816114b3565b840191505092915050565b6000610e62602a836111b4565b9150610e6d826114d1565b604082019050919050565b6000610e856018836111b4565b9150610e9082611520565b602082019050919050565b6000610ea86021836111b4565b9150610eb382611549565b604082019050919050565b6000610ecb6022836111b4565b9150610ed682611598565b604082019050919050565b6000610eee602e836111b4565b9150610ef9826115e7565b604082019050919050565b6000610f11602f836111b4565b9150610f1c82611636565b604082019050919050565b6000610f346019836111b4565b9150610f3f82611685565b602082019050919050565b610f53816112a0565b82525050565b610f6a610f65826112a0565b6113bc565b82525050565b6000610f7c8286610df6565b601482019150610f8c8285610f59565b602082019150610f9c8284610f59565b602082019150819050949350505050565b6000602082019050610fc26000830184610dd8565b92915050565b6000604082019050610fdd6000830185610de7565b610fea6020830184610de7565b9392505050565b60006020820190506110066000830184610e0d565b92915050565b600060808201905081810360008301526110268187610e1c565b90506110356020830186610f4a565b6110426040830185610e0d565b61104f6060830184610f4a565b95945050505050565b6000602082019050818103600083015261107181610e55565b9050919050565b6000602082019050818103600083015261109181610e78565b9050919050565b600060208201905081810360008301526110b181610e9b565b9050919050565b600060208201905081810360008301526110d181610ebe565b9050919050565b600060208201905081810360008301526110f181610ee1565b9050919050565b6000602082019050818103600083015261111181610f04565b9050919050565b6000602082019050818103600083015261113181610f27565b9050919050565b600060208201905061114d6000830184610f4a565b92915050565b600061115d61116e565b9050611169828261131e565b919050565b6000604051905090565b600067ffffffffffffffff82111561119357611192611484565b5b61119c826114b3565b9050602081019050919050565b600081519050919050565b600082825260208201905092915050565b60006111d0826112a0565b91506111db836112a0565b9250826111eb576111ea611426565b5b828204905092915050565b6000611201826112a0565b915061120c836112a0565b9250817fffffffffffffffffffffffffffffffffffffffffffffffffffffffffffffffff0483118215151615611245576112446113f7565b5b828202905092915050565b600061125b82611280565b9050919050565b600061126d82611280565b9050919050565b60008115159050919050565b600073ffffffffffffffffffffffffffffffffffffffff82169050919050565b6000819050919050565b82818337600083830152505050565b60005b838110156112d75780820151818401526020810190506112bc565b838111156112e6576000848401525b50505050565b6000600282049050600182168061130457607f821691505b6020821081141561131857611317611455565b5b50919050565b611327826114b3565b810181811067ffffffffffffffff8211171561134657611345611484565b5b80604052505050565b600061135a826112a0565b91507fffffffffffffffffffffffffffffffffffffffffffffffffffffffffffffffff82141561138d5761138c6113f7565b5b600182019050919050565b60006113a3826113aa565b9050919050565b60006113b5826114c4565b9050919050565b6000819050919050565b60006113d1826112a0565b91506113dc836112a0565b9250826113ec576113eb611426565b5b828206905092915050565b7f4e487b7100000000000000000000000000000000000000000000000000000000600052601160045260246000fd5b7f4e487b7100000000000000000000000000000000000000000000000000000000600052601260045260246000fd5b7f4e487b7100000000000000000000000000000000000000000000000000000000600052602260045260246000fd5b7f4e487b7100000000000000000000000000000000000000000000000000000000600052604160045260246000fd5b6000601f19601f8301169050919050565b60008160601b9050919050565b7f43616e2774207769746864726177207768696c6520616e20746f6d626f6c612060008201527f69732072756e6e696e6700000000000000000000000000000000000000000000602082015250565b7f4e6f7420656e6f756768207061727469636970616e74732e0000000000000000600082015250565b7f4f6e6c79206f776e657220697320616c6c6f77656420746f20646f207468697360008201527f2100000000000000000000000000000000000000000000000000000000000000602082015250565b7f544865726520616c7265616479206973206120746f6d626f6c612072756e6e6e60008201527f6967000000000000000000000000000000000000000000000000000000000000602082015250565b7f436865636b20746865207469636b65742070726963652e2053656e642074686560008201527f20657861637420616d6f756e742e000000000000000000000000000000000000602082015250565b7f596f7520616c726561647920626f756768742031207469636b65742e2054696360008201527f6b6574206c696d697420697320312e0000000000000000000000000000000000602082015250565b7f546f6d626f6c612068617320746f2062652072756e6e696e6700000000000000600082015250565b6116b7816112a0565b81146116c257600080fd5b5056fea2646970667358221220c39e4ed37eea49dda26a047f08d2583177ff72497371a0ab2718b816790a3dec64736f6c63430008040033",
	"linkReferences": {},
	"deployedLinkReferences": {}
}