{
  "_format": "hh-sol-artifact-1",
  "contractName": "Staking",
  "sourceName": "contracts/Staking.sol",
  "abi": [
    {
      "inputs": [
        {
          "internalType": "address payable",
          "name": "tokenAddress",
          "type": "address"
        }
      ],
      "stateMutability": "nonpayable",
      "type": "constructor"
    },
    {
      "inputs": [],
      "name": "claim",
      "outputs": [],
      "stateMutability": "nonpayable",
      "type": "function"
    },
    {
      "inputs": [
        {
          "internalType": "address",
          "name": "",
          "type": "address"
        }
      ],
      "name": "collateralBalancesETH",
      "outputs": [
        {
          "internalType": "uint256",
          "name": "",
          "type": "uint256"
        }
      ],
      "stateMutability": "view",
      "type": "function"
    },
    {
      "inputs": [],
      "name": "currentRewards",
      "outputs": [
        {
          "internalType": "uint256",
          "name": "",
          "type": "uint256"
        }
      ],
      "stateMutability": "view",
      "type": "function"
    },
    {
      "inputs": [],
      "name": "getLoan",
      "outputs": [],
      "stateMutability": "nonpayable",
      "type": "function"
    },
    {
      "inputs": [],
      "name": "lender",
      "outputs": [
        {
          "internalType": "address",
          "name": "",
          "type": "address"
        }
      ],
      "stateMutability": "view",
      "type": "function"
    },
    {
      "inputs": [],
      "name": "liquidationRatio",
      "outputs": [
        {
          "internalType": "uint256",
          "name": "",
          "type": "uint256"
        }
      ],
      "stateMutability": "view",
      "type": "function"
    },
    {
      "inputs": [
        {
          "internalType": "address",
          "name": "",
          "type": "address"
        }
      ],
      "name": "loans",
      "outputs": [
        {
          "internalType": "address",
          "name": "borrower",
          "type": "address"
        },
        {
          "internalType": "uint256",
          "name": "loanAmount",
          "type": "uint256"
        },
        {
          "internalType": "uint256",
          "name": "rate",
          "type": "uint256"
        },
        {
          "internalType": "uint256",
          "name": "repaymentPeriod",
          "type": "uint256"
        },
        {
          "internalType": "uint256",
          "name": "collateralAmount",
          "type": "uint256"
        },
        {
          "internalType": "bool",
          "name": "isActive",
          "type": "bool"
        }
      ],
      "stateMutability": "view",
      "type": "function"
    },
    {
      "inputs": [
        {
          "internalType": "address",
          "name": "",
          "type": "address"
        }
      ],
      "name": "rewards",
      "outputs": [
        {
          "internalType": "uint256",
          "name": "",
          "type": "uint256"
        }
      ],
      "stateMutability": "view",
      "type": "function"
    },
    {
      "inputs": [
        {
          "internalType": "uint256",
          "name": "_rate",
          "type": "uint256"
        }
      ],
      "name": "setInterestRate",
      "outputs": [],
      "stateMutability": "nonpayable",
      "type": "function"
    },
    {
      "inputs": [
        {
          "internalType": "uint256",
          "name": "_amount",
          "type": "uint256"
        }
      ],
      "name": "stake",
      "outputs": [],
      "stateMutability": "nonpayable",
      "type": "function"
    },
    {
      "inputs": [
        {
          "internalType": "address",
          "name": "",
          "type": "address"
        }
      ],
      "name": "staked",
      "outputs": [
        {
          "internalType": "uint256",
          "name": "",
          "type": "uint256"
        }
      ],
      "stateMutability": "view",
      "type": "function"
    },
    {
      "inputs": [],
      "name": "totalCollateral",
      "outputs": [
        {
          "internalType": "uint256",
          "name": "",
          "type": "uint256"
        }
      ],
      "stateMutability": "view",
      "type": "function"
    },
    {
      "inputs": [],
      "name": "totalStaked",
      "outputs": [
        {
          "internalType": "uint256",
          "name": "",
          "type": "uint256"
        }
      ],
      "stateMutability": "view",
      "type": "function"
    },
    {
      "inputs": [
        {
          "internalType": "uint256",
          "name": "",
          "type": "uint256"
        }
      ],
      "name": "users",
      "outputs": [
        {
          "internalType": "address",
          "name": "",
          "type": "address"
        }
      ],
      "stateMutability": "view",
      "type": "function"
    },
    {
      "inputs": [
        {
          "internalType": "address",
          "name": "origin",
          "type": "address"
        }
      ],
      "name": "verifyUser",
      "outputs": [
        {
          "internalType": "bool",
          "name": "",
          "type": "bool"
        }
      ],
      "stateMutability": "view",
      "type": "function"
    },
    {
      "inputs": [
        {
          "internalType": "uint256",
          "name": "_amount",
          "type": "uint256"
        }
      ],
      "name": "withdrawStake",
      "outputs": [],
      "stateMutability": "nonpayable",
      "type": "function"
    },
    {
      "inputs": [],
      "name": "xCoinContract",
      "outputs": [
        {
          "internalType": "contract IERC20",
          "name": "",
          "type": "address"
        }
      ],
      "stateMutability": "view",
      "type": "function"
    }
  ],
  "bytecode": "0x60806040523480156200001157600080fd5b50604051620013e1380380620013e1833981810160405281019062000037919062000131565b33600a60006101000a81548173ffffffffffffffffffffffffffffffffffffffff021916908373ffffffffffffffffffffffffffffffffffffffff160217905550806000806101000a81548173ffffffffffffffffffffffffffffffffffffffff021916908373ffffffffffffffffffffffffffffffffffffffff160217905550600a6001819055505062000163565b600080fd5b600073ffffffffffffffffffffffffffffffffffffffff82169050919050565b6000620000f982620000cc565b9050919050565b6200010b81620000ec565b81146200011757600080fd5b50565b6000815190506200012b8162000100565b92915050565b6000602082840312156200014a5762000149620000c7565b5b60006200015a848285016200011a565b91505092915050565b61126e80620001736000396000f3fe608060405234801561001057600080fd5b506004361061010b5760003560e01c80634e71d92d116100a2578063901a7d5311610071578063901a7d531461029957806398807d84146102b7578063a694fc3a146102e7578063af2b89da14610303578063bcead63e146103335761010b565b80634e71d92d146102205780635f84f3021461022a57806373b4086b14610246578063817b1cd21461027b5761010b565b8063365b98b2116100de578063365b98b2146101985780634859b3f4146101c85780634ac8eb5f146101d25780634d813120146101f05761010b565b80630700037d146101105780631775765f1461014057806325d5971f1461015e57806327c6618c1461017a575b600080fd5b61012a60048036038101906101259190610c5f565b610351565b6040516101379190610ca5565b60405180910390f35b610148610369565b6040516101559190610ca5565b60405180910390f35b61017860048036038101906101739190610cec565b61036f565b005b610182610502565b60405161018f9190610d78565b60405180910390f35b6101b260048036038101906101ad9190610cec565b610526565b6040516101bf9190610da2565b60405180910390f35b6101d0610565565b005b6101da610570565b6040516101e79190610ca5565b60405180910390f35b61020a60048036038101906102059190610c5f565b610576565b6040516102179190610dd8565b60405180910390f35b610228610622565b005b610244600480360381019061023f9190610cec565b610793565b005b610260600480360381019061025b9190610c5f565b61082d565b60405161027296959493929190610df3565b60405180910390f35b610283610896565b6040516102909190610ca5565b60405180910390f35b6102a161089c565b6040516102ae9190610ca5565b60405180910390f35b6102d160048036038101906102cc9190610c5f565b6108a2565b6040516102de9190610ca5565b60405180910390f35b61030160048036038101906102fc9190610cec565b6108ba565b005b61031d60048036038101906103189190610c5f565b610a91565b60405161032a9190610ca5565b60405180910390f35b61033b610aa9565b6040516103489190610da2565b60405180910390f35b60036020528060005260406000206000915090505481565b600c5481565b80600260003373ffffffffffffffffffffffffffffffffffffffff1673ffffffffffffffffffffffffffffffffffffffff1681526020019081526020016000205410156103f1576040517f08c379a00000000000000000000000000000000000000000000000000000000081526004016103e890610eb1565b60405180910390fd5b60008054906101000a900473ffffffffffffffffffffffffffffffffffffffff1673ffffffffffffffffffffffffffffffffffffffff1663a9059cbb33836040518363ffffffff1660e01b815260040161044c929190610ed1565b6020604051808303816000875af115801561046b573d6000803e3d6000fd5b505050506040513d601f19601f8201168201806040525081019061048f9190610f26565b5080600260003373ffffffffffffffffffffffffffffffffffffffff1673ffffffffffffffffffffffffffffffffffffffff16815260200190815260200160002060008282546104df9190610f82565b9250508190555080600660008282546104f89190610f82565b9250508190555050565b60008054906101000a900473ffffffffffffffffffffffffffffffffffffffff1681565b6004818154811061053657600080fd5b906000526020600020016000915054906101000a900473ffffffffffffffffffffffffffffffffffffffff1681565b6103e8600581905550565b600b5481565b600080600090505b600480549050811015610617578273ffffffffffffffffffffffffffffffffffffffff16600482815481106105b6576105b5610fb6565b5b9060005260206000200160009054906101000a900473ffffffffffffffffffffffffffffffffffffffff1673ffffffffffffffffffffffffffffffffffffffff160361060657600091505061061d565b8061061090610fe5565b905061057e565b50600190505b919050565b6000600360003373ffffffffffffffffffffffffffffffffffffffff1673ffffffffffffffffffffffffffffffffffffffff168152602001908152602001600020541161066e57600080fd5b60008054906101000a900473ffffffffffffffffffffffffffffffffffffffff1673ffffffffffffffffffffffffffffffffffffffff1663a9059cbb33600360003373ffffffffffffffffffffffffffffffffffffffff1673ffffffffffffffffffffffffffffffffffffffff168152602001908152602001600020546040518363ffffffff1660e01b8152600401610708929190610ed1565b6020604051808303816000875af1158015610727573d6000803e3d6000fd5b505050506040513d601f19601f8201168201806040525081019061074b9190610f26565b506000600360003373ffffffffffffffffffffffffffffffffffffffff1673ffffffffffffffffffffffffffffffffffffffff16815260200190815260200160002081905550565b600a60009054906101000a900473ffffffffffffffffffffffffffffffffffffffff1673ffffffffffffffffffffffffffffffffffffffff163373ffffffffffffffffffffffffffffffffffffffff1614610823576040517f08c379a000000000000000000000000000000000000000000000000000000000815260040161081a9061109f565b60405180910390fd5b8060018190555050565b60096020528060005260406000206000915090508060000160009054906101000a900473ffffffffffffffffffffffffffffffffffffffff16908060010154908060020154908060030154908060040154908060050160009054906101000a900460ff16905086565b60065481565b60055481565b60026020528060005260406000206000915090505481565b60008054906101000a900473ffffffffffffffffffffffffffffffffffffffff1673ffffffffffffffffffffffffffffffffffffffff166323b872dd3330846040518463ffffffff1660e01b8152600401610917939291906110bf565b6020604051808303816000875af1158015610936573d6000803e3d6000fd5b505050506040513d601f19601f8201168201806040525081019061095a9190610f26565b610999576040517f08c379a000000000000000000000000000000000000000000000000000000000815260040161099090611142565b60405180910390fd5b600060055411156109ad576109ac610acf565b5b6109b633610576565b15610a1f576004339080600181540180825580915050600190039060005260206000200160009091909190916101000a81548173ffffffffffffffffffffffffffffffffffffffff021916908373ffffffffffffffffffffffffffffffffffffffff1602179055505b80600260003373ffffffffffffffffffffffffffffffffffffffff1673ffffffffffffffffffffffffffffffffffffffff1681526020019081526020016000206000828254610a6e9190611162565b925050819055508060066000828254610a879190611162565b9250508190555050565b60086020528060005260406000206000915090505481565b600a60009054906101000a900473ffffffffffffffffffffffffffffffffffffffff1681565b600080600080600090505b600480549050811015610bee5760048181548110610afb57610afa610fb6565b5b9060005260206000200160009054906101000a900473ffffffffffffffffffffffffffffffffffffffff169150600260008373ffffffffffffffffffffffffffffffffffffffff1673ffffffffffffffffffffffffffffffffffffffff16815260200190815260200160002054935060065484600554610b7b9190611196565b610b859190611207565b925082600360008473ffffffffffffffffffffffffffffffffffffffff1673ffffffffffffffffffffffffffffffffffffffff1681526020019081526020016000206000828254610bd69190611162565b9250508190555080610be790610fe5565b9050610ada565b506000600581905550505050565b600080fd5b600073ffffffffffffffffffffffffffffffffffffffff82169050919050565b6000610c2c82610c01565b9050919050565b610c3c81610c21565b8114610c4757600080fd5b50565b600081359050610c5981610c33565b92915050565b600060208284031215610c7557610c74610bfc565b5b6000610c8384828501610c4a565b91505092915050565b6000819050919050565b610c9f81610c8c565b82525050565b6000602082019050610cba6000830184610c96565b92915050565b610cc981610c8c565b8114610cd457600080fd5b50565b600081359050610ce681610cc0565b92915050565b600060208284031215610d0257610d01610bfc565b5b6000610d1084828501610cd7565b91505092915050565b6000819050919050565b6000610d3e610d39610d3484610c01565b610d19565b610c01565b9050919050565b6000610d5082610d23565b9050919050565b6000610d6282610d45565b9050919050565b610d7281610d57565b82525050565b6000602082019050610d8d6000830184610d69565b92915050565b610d9c81610c21565b82525050565b6000602082019050610db76000830184610d93565b92915050565b60008115159050919050565b610dd281610dbd565b82525050565b6000602082019050610ded6000830184610dc9565b92915050565b600060c082019050610e086000830189610d93565b610e156020830188610c96565b610e226040830187610c96565b610e2f6060830186610c96565b610e3c6080830185610c96565b610e4960a0830184610dc9565b979650505050505050565b600082825260208201905092915050565b7f596f752068617665206c657373207374616b65642e0000000000000000000000600082015250565b6000610e9b601583610e54565b9150610ea682610e65565b602082019050919050565b60006020820190508181036000830152610eca81610e8e565b9050919050565b6000604082019050610ee66000830185610d93565b610ef36020830184610c96565b9392505050565b610f0381610dbd565b8114610f0e57600080fd5b50565b600081519050610f2081610efa565b92915050565b600060208284031215610f3c57610f3b610bfc565b5b6000610f4a84828501610f11565b91505092915050565b7f4e487b7100000000000000000000000000000000000000000000000000000000600052601160045260246000fd5b6000610f8d82610c8c565b9150610f9883610c8c565b9250828203905081811115610fb057610faf610f53565b5b92915050565b7f4e487b7100000000000000000000000000000000000000000000000000000000600052603260045260246000fd5b6000610ff082610c8c565b91507fffffffffffffffffffffffffffffffffffffffffffffffffffffffffffffffff820361102257611021610f53565b5b600182019050919050565b7f4f6e6c7920746865206c656e6465722063616e2063616c6c207468697320667560008201527f6e6374696f6e2e00000000000000000000000000000000000000000000000000602082015250565b6000611089602783610e54565b91506110948261102d565b604082019050919050565b600060208201905081810360008301526110b88161107c565b9050919050565b60006060820190506110d46000830186610d93565b6110e16020830185610d93565b6110ee6040830184610c96565b949350505050565b7f5472616e73666572206661696c65640000000000000000000000000000000000600082015250565b600061112c600f83610e54565b9150611137826110f6565b602082019050919050565b6000602082019050818103600083015261115b8161111f565b9050919050565b600061116d82610c8c565b915061117883610c8c565b92508282019050808211156111905761118f610f53565b5b92915050565b60006111a182610c8c565b91506111ac83610c8c565b92508282026111ba81610c8c565b915082820484148315176111d1576111d0610f53565b5b5092915050565b7f4e487b7100000000000000000000000000000000000000000000000000000000600052601260045260246000fd5b600061121282610c8c565b915061121d83610c8c565b92508261122d5761122c6111d8565b5b82820490509291505056fea264697066735822122056b0fabfe77b16dfa77a8e9554c9780d945a85ea2e6ce78c2c5fe0d8475f983264736f6c63430008110033",
  "linkReferences": {},
  "deployedLinkReferences": {}
}