{
	"_format": "hh-sol-artifact-1",
	"contractName": "Staking",
	"sourceName": "contracts/Staking.sol",
	"abi": [
		{
			"inputs": [
				{
					"internalType": "address payable",
					"name": "tokenAddress",
					"type": "address"
				}
			],
			"stateMutability": "nonpayable",
			"type": "constructor"
		},
		{
			"inputs": [],
			"name": "claim",
			"outputs": [],
			"stateMutability": "nonpayable",
			"type": "function"
		},
		{
			"inputs": [
				{
					"internalType": "address",
					"name": "",
					"type": "address"
				}
			],
			"name": "collateralBalances",
			"outputs": [
				{
					"internalType": "uint256",
					"name": "",
					"type": "uint256"
				}
			],
			"stateMutability": "view",
			"type": "function"
		},
		{
			"inputs": [],
			"name": "currentRewards",
			"outputs": [
				{
					"internalType": "uint256",
					"name": "",
					"type": "uint256"
				}
			],
			"stateMutability": "view",
			"type": "function"
		},
		{
			"inputs": [],
			"name": "getLoan",
			"outputs": [],
			"stateMutability": "nonpayable",
			"type": "function"
		},
		{
			"inputs": [],
			"name": "lender",
			"outputs": [
				{
					"internalType": "address",
					"name": "",
					"type": "address"
				}
			],
			"stateMutability": "view",
			"type": "function"
		},
		{
			"inputs": [],
			"name": "liquidationRatio",
			"outputs": [
				{
					"internalType": "uint256",
					"name": "",
					"type": "uint256"
				}
			],
			"stateMutability": "view",
			"type": "function"
		},
		{
			"inputs": [
				{
					"internalType": "address",
					"name": "",
					"type": "address"
				}
			],
			"name": "loans",
			"outputs": [
				{
					"internalType": "address",
					"name": "borrower",
					"type": "address"
				},
				{
					"internalType": "uint256",
					"name": "loanAmount",
					"type": "uint256"
				},
				{
					"internalType": "uint256",
					"name": "interestRate",
					"type": "uint256"
				},
				{
					"internalType": "uint256",
					"name": "repaymentPeriod",
					"type": "uint256"
				},
				{
					"internalType": "uint256",
					"name": "collateralAmount",
					"type": "uint256"
				},
				{
					"internalType": "bool",
					"name": "isActive",
					"type": "bool"
				}
			],
			"stateMutability": "view",
			"type": "function"
		},
		{
			"inputs": [
				{
					"internalType": "uint256",
					"name": "_loanAmount",
					"type": "uint256"
				},
				{
					"internalType": "uint256",
					"name": "_interestRate",
					"type": "uint256"
				},
				{
					"internalType": "uint256",
					"name": "_repaymentPeriod",
					"type": "uint256"
				},
				{
					"internalType": "uint256",
					"name": "_collateralAmount",
					"type": "uint256"
				}
			],
			"name": "requestLoan",
			"outputs": [],
			"stateMutability": "nonpayable",
			"type": "function"
		},
		{
			"inputs": [
				{
					"internalType": "address",
					"name": "",
					"type": "address"
				}
			],
			"name": "rewards",
			"outputs": [
				{
					"internalType": "uint256",
					"name": "",
					"type": "uint256"
				}
			],
			"stateMutability": "view",
			"type": "function"
		},
		{
			"inputs": [
				{
					"internalType": "uint256",
					"name": "_amount",
					"type": "uint256"
				}
			],
			"name": "stake",
			"outputs": [],
			"stateMutability": "nonpayable",
			"type": "function"
		},
		{
			"inputs": [
				{
					"internalType": "address",
					"name": "",
					"type": "address"
				}
			],
			"name": "staked",
			"outputs": [
				{
					"internalType": "uint256",
					"name": "",
					"type": "uint256"
				}
			],
			"stateMutability": "view",
			"type": "function"
		},
		{
			"inputs": [],
			"name": "totalCollateral",
			"outputs": [
				{
					"internalType": "uint256",
					"name": "",
					"type": "uint256"
				}
			],
			"stateMutability": "view",
			"type": "function"
		},
		{
			"inputs": [],
			"name": "totalStaked",
			"outputs": [
				{
					"internalType": "uint256",
					"name": "",
					"type": "uint256"
				}
			],
			"stateMutability": "view",
			"type": "function"
		},
		{
			"inputs": [
				{
					"internalType": "uint256",
					"name": "",
					"type": "uint256"
				}
			],
			"name": "users",
			"outputs": [
				{
					"internalType": "address",
					"name": "",
					"type": "address"
				}
			],
			"stateMutability": "view",
			"type": "function"
		},
		{
			"inputs": [
				{
					"internalType": "uint256",
					"name": "_amount",
					"type": "uint256"
				}
			],
			"name": "withdrawStake",
			"outputs": [],
			"stateMutability": "nonpayable",
			"type": "function"
		},
		{
			"inputs": [],
			"name": "xCoinContract",
			"outputs": [
				{
					"internalType": "contract IERC20",
					"name": "",
					"type": "address"
				}
			],
			"stateMutability": "view",
			"type": "function"
		}
	],
	"bytecode": "0x60806040523480156200001157600080fd5b506040516200153838038062001538833981810160405281019062000037919062000129565b33600860006101000a81548173ffffffffffffffffffffffffffffffffffffffff021916908373ffffffffffffffffffffffffffffffffffffffff160217905550806000806101000a81548173ffffffffffffffffffffffffffffffffffffffff021916908373ffffffffffffffffffffffffffffffffffffffff160217905550506200015b565b600080fd5b600073ffffffffffffffffffffffffffffffffffffffff82169050919050565b6000620000f182620000c4565b9050919050565b6200010381620000e4565b81146200010f57600080fd5b50565b6000815190506200012381620000f8565b92915050565b600060208284031215620001425762000141620000bf565b5b6000620001528482850162000112565b91505092915050565b6113cd806200016b6000396000f3fe608060405234801561001057600080fd5b50600436106101005760003560e01c80634e71d92d11610097578063901a7d5311610066578063901a7d531461028e57806398807d84146102ac578063a694fc3a146102dc578063bcead63e146102f857610100565b80634e71d92d1461021557806373b4086b1461021f578063753c7ff914610254578063817b1cd21461027057610100565b806329bc969d116100d357806329bc969d1461018d578063365b98b2146101bd5780634859b3f4146101ed5780634ac8eb5f146101f757610100565b80630700037d146101055780631775765f1461013557806325d5971f1461015357806327c6618c1461016f575b600080fd5b61011f600480360381019061011a9190610d98565b610316565b60405161012c9190610dde565b60405180910390f35b61013d61032e565b60405161014a9190610dde565b60405180910390f35b61016d60048036038101906101689190610e25565b610334565b005b6101776104c7565b6040516101849190610eb1565b60405180910390f35b6101a760048036038101906101a29190610d98565b6104eb565b6040516101b49190610dde565b60405180910390f35b6101d760048036038101906101d29190610e25565b610503565b6040516101e49190610edb565b60405180910390f35b6101f5610542565b005b6101ff61054d565b60405161020c9190610dde565b60405180910390f35b61021d610553565b005b61023960048036038101906102349190610d98565b6106c4565b60405161024b96959493929190610f11565b60405180910390f35b61026e60048036038101906102699190610f72565b61072d565b005b61027861093b565b6040516102859190610dde565b60405180910390f35b610296610941565b6040516102a39190610dde565b60405180910390f35b6102c660048036038101906102c19190610d98565b610947565b6040516102d39190610dde565b60405180910390f35b6102f660048036038101906102f19190610e25565b61095f565b005b610300610b36565b60405161030d9190610edb565b60405180910390f35b60026020528060005260406000206000915090505481565b600a5481565b80600160003373ffffffffffffffffffffffffffffffffffffffff1673ffffffffffffffffffffffffffffffffffffffff1681526020019081526020016000205410156103b6576040517f08c379a00000000000000000000000000000000000000000000000000000000081526004016103ad90611036565b60405180910390fd5b60008054906101000a900473ffffffffffffffffffffffffffffffffffffffff1673ffffffffffffffffffffffffffffffffffffffff1663a9059cbb33836040518363ffffffff1660e01b8152600401610411929190611056565b6020604051808303816000875af1158015610430573d6000803e3d6000fd5b505050506040513d601f19601f8201168201806040525081019061045491906110ab565b5080600160003373ffffffffffffffffffffffffffffffffffffffff1673ffffffffffffffffffffffffffffffffffffffff16815260200190815260200160002060008282546104a49190611107565b9250508190555080600560008282546104bd9190611107565b9250508190555050565b60008054906101000a900473ffffffffffffffffffffffffffffffffffffffff1681565b60066020528060005260406000206000915090505481565b6003818154811061051357600080fd5b906000526020600020016000915054906101000a900473ffffffffffffffffffffffffffffffffffffffff1681565b6103e8600481905550565b60095481565b6000600260003373ffffffffffffffffffffffffffffffffffffffff1673ffffffffffffffffffffffffffffffffffffffff168152602001908152602001600020541161059f57600080fd5b60008054906101000a900473ffffffffffffffffffffffffffffffffffffffff1673ffffffffffffffffffffffffffffffffffffffff1663a9059cbb33600260003373ffffffffffffffffffffffffffffffffffffffff1673ffffffffffffffffffffffffffffffffffffffff168152602001908152602001600020546040518363ffffffff1660e01b8152600401610639929190611056565b6020604051808303816000875af1158015610658573d6000803e3d6000fd5b505050506040513d601f19601f8201168201806040525081019061067c91906110ab565b506000600260003373ffffffffffffffffffffffffffffffffffffffff1673ffffffffffffffffffffffffffffffffffffffff16815260200190815260200160002081905550565b60076020528060005260406000206000915090508060000160009054906101000a900473ffffffffffffffffffffffffffffffffffffffff16908060010154908060020154908060030154908060040154908060050160009054906101000a900460ff16905086565b80600660003373ffffffffffffffffffffffffffffffffffffffff1673ffffffffffffffffffffffffffffffffffffffff1681526020019081526020016000205410156107af576040517f08c379a00000000000000000000000000000000000000000000000000000000081526004016107a690611187565b60405180910390fd5b6040518060c001604052803373ffffffffffffffffffffffffffffffffffffffff16815260200185815260200184815260200183815260200182815260200160011515815250600760003373ffffffffffffffffffffffffffffffffffffffff1673ffffffffffffffffffffffffffffffffffffffff16815260200190815260200160002060008201518160000160006101000a81548173ffffffffffffffffffffffffffffffffffffffff021916908373ffffffffffffffffffffffffffffffffffffffff1602179055506020820151816001015560408201518160020155606082015181600301556080820151816004015560a08201518160050160006101000a81548160ff02191690831515021790555090505080600660003373ffffffffffffffffffffffffffffffffffffffff1673ffffffffffffffffffffffffffffffffffffffff16815260200190815260200160002060008282546109159190611107565b92505081905550806009600082825461092e91906111a7565b9250508190555050505050565b60055481565b60045481565b60016020528060005260406000206000915090505481565b60008054906101000a900473ffffffffffffffffffffffffffffffffffffffff1673ffffffffffffffffffffffffffffffffffffffff166323b872dd3330846040518463ffffffff1660e01b81526004016109bc939291906111db565b6020604051808303816000875af11580156109db573d6000803e3d6000fd5b505050506040513d601f19601f820116820180604052508101906109ff91906110ab565b610a3e576040517f08c379a0000000000000000000000000000000000000000000000000000000008152600401610a359061125e565b60405180910390fd5b60006004541115610a5257610a51610b5c565b5b610a5b33610c89565b15610ac4576003339080600181540180825580915050600190039060005260206000200160009091909190916101000a81548173ffffffffffffffffffffffffffffffffffffffff021916908373ffffffffffffffffffffffffffffffffffffffff1602179055505b80600160003373ffffffffffffffffffffffffffffffffffffffff1673ffffffffffffffffffffffffffffffffffffffff1681526020019081526020016000206000828254610b1391906111a7565b925050819055508060056000828254610b2c91906111a7565b9250508190555050565b600860009054906101000a900473ffffffffffffffffffffffffffffffffffffffff1681565b600080600080600090505b600380549050811015610c7b5760038181548110610b8857610b8761127e565b5b9060005260206000200160009054906101000a900473ffffffffffffffffffffffffffffffffffffffff169150600160008373ffffffffffffffffffffffffffffffffffffffff1673ffffffffffffffffffffffffffffffffffffffff16815260200190815260200160002054935060055484600454610c0891906112ad565b610c12919061131e565b925082600260008473ffffffffffffffffffffffffffffffffffffffff1673ffffffffffffffffffffffffffffffffffffffff1681526020019081526020016000206000828254610c6391906111a7565b9250508190555080610c749061134f565b9050610b67565b506000600481905550505050565b600080600090505b600380549050811015610d2a578273ffffffffffffffffffffffffffffffffffffffff1660038281548110610cc957610cc861127e565b5b9060005260206000200160009054906101000a900473ffffffffffffffffffffffffffffffffffffffff1673ffffffffffffffffffffffffffffffffffffffff1603610d19576000915050610d30565b80610d239061134f565b9050610c91565b50600190505b919050565b600080fd5b600073ffffffffffffffffffffffffffffffffffffffff82169050919050565b6000610d6582610d3a565b9050919050565b610d7581610d5a565b8114610d8057600080fd5b50565b600081359050610d9281610d6c565b92915050565b600060208284031215610dae57610dad610d35565b5b6000610dbc84828501610d83565b91505092915050565b6000819050919050565b610dd881610dc5565b82525050565b6000602082019050610df36000830184610dcf565b92915050565b610e0281610dc5565b8114610e0d57600080fd5b50565b600081359050610e1f81610df9565b92915050565b600060208284031215610e3b57610e3a610d35565b5b6000610e4984828501610e10565b91505092915050565b6000819050919050565b6000610e77610e72610e6d84610d3a565b610e52565b610d3a565b9050919050565b6000610e8982610e5c565b9050919050565b6000610e9b82610e7e565b9050919050565b610eab81610e90565b82525050565b6000602082019050610ec66000830184610ea2565b92915050565b610ed581610d5a565b82525050565b6000602082019050610ef06000830184610ecc565b92915050565b60008115159050919050565b610f0b81610ef6565b82525050565b600060c082019050610f266000830189610ecc565b610f336020830188610dcf565b610f406040830187610dcf565b610f4d6060830186610dcf565b610f5a6080830185610dcf565b610f6760a0830184610f02565b979650505050505050565b60008060008060808587031215610f8c57610f8b610d35565b5b6000610f9a87828801610e10565b9450506020610fab87828801610e10565b9350506040610fbc87828801610e10565b9250506060610fcd87828801610e10565b91505092959194509250565b600082825260208201905092915050565b7f596f752068617665206c657373207374616b65642e0000000000000000000000600082015250565b6000611020601583610fd9565b915061102b82610fea565b602082019050919050565b6000602082019050818103600083015261104f81611013565b9050919050565b600060408201905061106b6000830185610ecc565b6110786020830184610dcf565b9392505050565b61108881610ef6565b811461109357600080fd5b50565b6000815190506110a58161107f565b92915050565b6000602082840312156110c1576110c0610d35565b5b60006110cf84828501611096565b91505092915050565b7f4e487b7100000000000000000000000000000000000000000000000000000000600052601160045260246000fd5b600061111282610dc5565b915061111d83610dc5565b9250828203905081811115611135576111346110d8565b5b92915050565b7f496e73756666696369656e7420636f6c6c61746572616c2e0000000000000000600082015250565b6000611171601883610fd9565b915061117c8261113b565b602082019050919050565b600060208201905081810360008301526111a081611164565b9050919050565b60006111b282610dc5565b91506111bd83610dc5565b92508282019050808211156111d5576111d46110d8565b5b92915050565b60006060820190506111f06000830186610ecc565b6111fd6020830185610ecc565b61120a6040830184610dcf565b949350505050565b7f5472616e73666572206661696c65640000000000000000000000000000000000600082015250565b6000611248600f83610fd9565b915061125382611212565b602082019050919050565b600060208201905081810360008301526112778161123b565b9050919050565b7f4e487b7100000000000000000000000000000000000000000000000000000000600052603260045260246000fd5b60006112b882610dc5565b91506112c383610dc5565b92508282026112d181610dc5565b915082820484148315176112e8576112e76110d8565b5b5092915050565b7f4e487b7100000000000000000000000000000000000000000000000000000000600052601260045260246000fd5b600061132982610dc5565b915061133483610dc5565b925082611344576113436112ef565b5b828204905092915050565b600061135a82610dc5565b91507fffffffffffffffffffffffffffffffffffffffffffffffffffffffffffffffff820361138c5761138b6110d8565b5b60018201905091905056fea2646970667358221220dffcb285a34ad5d3226e94acc80950e6007b946831f7b14549806395faf25e4664736f6c63430008110033",
	"linkReferences": {},
	"deployedLinkReferences": {}
}