{
	"_format": "hh-sol-artifact-1",
	"contractName": "ThreeNft",
	"sourceName": "contracts/ThreeNft.sol",
	"abi": [
		{
			"inputs": [
				{
					"internalType": "string",
					"name": "baseURI",
					"type": "string"
				},
				{
					"internalType": "address",
					"name": "contractTokenAddress",
					"type": "address"
				}
			],
			"stateMutability": "nonpayable",
			"type": "constructor"
		},
		{
			"inputs": [],
			"name": "ApprovalCallerNotOwnerNorApproved",
			"type": "error"
		},
		{
			"inputs": [],
			"name": "ApprovalQueryForNonexistentToken",
			"type": "error"
		},
		{
			"inputs": [],
			"name": "BalanceQueryForZeroAddress",
			"type": "error"
		},
		{
			"inputs": [],
			"name": "MintERC2309QuantityExceedsLimit",
			"type": "error"
		},
		{
			"inputs": [],
			"name": "MintToZeroAddress",
			"type": "error"
		},
		{
			"inputs": [],
			"name": "MintZeroQuantity",
			"type": "error"
		},
		{
			"inputs": [],
			"name": "OwnerQueryForNonexistentToken",
			"type": "error"
		},
		{
			"inputs": [],
			"name": "OwnershipNotInitializedForExtraData",
			"type": "error"
		},
		{
			"inputs": [],
			"name": "TransferCallerNotOwnerNorApproved",
			"type": "error"
		},
		{
			"inputs": [],
			"name": "TransferFromIncorrectOwner",
			"type": "error"
		},
		{
			"inputs": [],
			"name": "TransferToNonERC721ReceiverImplementer",
			"type": "error"
		},
		{
			"inputs": [],
			"name": "TransferToZeroAddress",
			"type": "error"
		},
		{
			"inputs": [],
			"name": "URIQueryForNonexistentToken",
			"type": "error"
		},
		{
			"anonymous": false,
			"inputs": [
				{
					"indexed": true,
					"internalType": "address",
					"name": "owner",
					"type": "address"
				},
				{
					"indexed": true,
					"internalType": "address",
					"name": "approved",
					"type": "address"
				},
				{
					"indexed": true,
					"internalType": "uint256",
					"name": "tokenId",
					"type": "uint256"
				}
			],
			"name": "Approval",
			"type": "event"
		},
		{
			"anonymous": false,
			"inputs": [
				{
					"indexed": true,
					"internalType": "address",
					"name": "owner",
					"type": "address"
				},
				{
					"indexed": true,
					"internalType": "address",
					"name": "operator",
					"type": "address"
				},
				{
					"indexed": false,
					"internalType": "bool",
					"name": "approved",
					"type": "bool"
				}
			],
			"name": "ApprovalForAll",
			"type": "event"
		},
		{
			"anonymous": false,
			"inputs": [
				{
					"indexed": true,
					"internalType": "uint256",
					"name": "fromTokenId",
					"type": "uint256"
				},
				{
					"indexed": false,
					"internalType": "uint256",
					"name": "toTokenId",
					"type": "uint256"
				},
				{
					"indexed": true,
					"internalType": "address",
					"name": "from",
					"type": "address"
				},
				{
					"indexed": true,
					"internalType": "address",
					"name": "to",
					"type": "address"
				}
			],
			"name": "ConsecutiveTransfer",
			"type": "event"
		},
		{
			"anonymous": false,
			"inputs": [
				{
					"indexed": true,
					"internalType": "address",
					"name": "previousOwner",
					"type": "address"
				},
				{
					"indexed": true,
					"internalType": "address",
					"name": "newOwner",
					"type": "address"
				}
			],
			"name": "OwnershipTransferred",
			"type": "event"
		},
		{
			"anonymous": false,
			"inputs": [
				{
					"indexed": false,
					"internalType": "address",
					"name": "account",
					"type": "address"
				}
			],
			"name": "Paused",
			"type": "event"
		},
		{
			"anonymous": false,
			"inputs": [
				{
					"indexed": true,
					"internalType": "address",
					"name": "from",
					"type": "address"
				},
				{
					"indexed": true,
					"internalType": "address",
					"name": "to",
					"type": "address"
				},
				{
					"indexed": true,
					"internalType": "uint256",
					"name": "tokenId",
					"type": "uint256"
				}
			],
			"name": "Transfer",
			"type": "event"
		},
		{
			"anonymous": false,
			"inputs": [
				{
					"indexed": false,
					"internalType": "address",
					"name": "account",
					"type": "address"
				}
			],
			"name": "Unpaused",
			"type": "event"
		},
		{
			"inputs": [],
			"name": "MAX_PER_MINT",
			"outputs": [
				{
					"internalType": "uint256",
					"name": "",
					"type": "uint256"
				}
			],
			"stateMutability": "view",
			"type": "function"
		},
		{
			"inputs": [],
			"name": "MAX_SUPPLY",
			"outputs": [
				{
					"internalType": "uint256",
					"name": "",
					"type": "uint256"
				}
			],
			"stateMutability": "view",
			"type": "function"
		},
		{
			"inputs": [],
			"name": "PRICE",
			"outputs": [
				{
					"internalType": "uint256",
					"name": "",
					"type": "uint256"
				}
			],
			"stateMutability": "view",
			"type": "function"
		},
		{
			"inputs": [
				{
					"internalType": "address",
					"name": "to",
					"type": "address"
				},
				{
					"internalType": "uint256",
					"name": "tokenId",
					"type": "uint256"
				}
			],
			"name": "approve",
			"outputs": [],
			"stateMutability": "payable",
			"type": "function"
		},
		{
			"inputs": [
				{
					"internalType": "address",
					"name": "owner",
					"type": "address"
				}
			],
			"name": "balanceOf",
			"outputs": [
				{
					"internalType": "uint256",
					"name": "",
					"type": "uint256"
				}
			],
			"stateMutability": "view",
			"type": "function"
		},
		{
			"inputs": [],
			"name": "baseTokenURI",
			"outputs": [
				{
					"internalType": "string",
					"name": "",
					"type": "string"
				}
			],
			"stateMutability": "view",
			"type": "function"
		},
		{
			"inputs": [
				{
					"internalType": "uint256",
					"name": "_tokenId",
					"type": "uint256"
				},
				{
					"internalType": "uint256",
					"name": "_reward",
					"type": "uint256"
				},
				{
					"internalType": "uint256",
					"name": "_cooldown",
					"type": "uint256"
				},
				{
					"internalType": "bytes",
					"name": "signature",
					"type": "bytes"
				}
			],
			"name": "claimReward",
			"outputs": [],
			"stateMutability": "nonpayable",
			"type": "function"
		},
		{
			"inputs": [],
			"name": "claimRewards",
			"outputs": [],
			"stateMutability": "nonpayable",
			"type": "function"
		},
		{
			"inputs": [
				{
					"internalType": "uint256",
					"name": "tokenId",
					"type": "uint256"
				}
			],
			"name": "getApproved",
			"outputs": [
				{
					"internalType": "address",
					"name": "",
					"type": "address"
				}
			],
			"stateMutability": "view",
			"type": "function"
		},
		{
			"inputs": [
				{
					"internalType": "address",
					"name": "owner",
					"type": "address"
				},
				{
					"internalType": "address",
					"name": "operator",
					"type": "address"
				}
			],
			"name": "isApprovedForAll",
			"outputs": [
				{
					"internalType": "bool",
					"name": "",
					"type": "bool"
				}
			],
			"stateMutability": "view",
			"type": "function"
		},
		{
			"inputs": [
				{
					"internalType": "uint256",
					"name": "quantity",
					"type": "uint256"
				}
			],
			"name": "mint",
			"outputs": [],
			"stateMutability": "payable",
			"type": "function"
		},
		{
			"inputs": [],
			"name": "name",
			"outputs": [
				{
					"internalType": "string",
					"name": "",
					"type": "string"
				}
			],
			"stateMutability": "view",
			"type": "function"
		},
		{
			"inputs": [],
			"name": "owner",
			"outputs": [
				{
					"internalType": "address",
					"name": "",
					"type": "address"
				}
			],
			"stateMutability": "view",
			"type": "function"
		},
		{
			"inputs": [
				{
					"internalType": "uint256",
					"name": "tokenId",
					"type": "uint256"
				}
			],
			"name": "ownerOf",
			"outputs": [
				{
					"internalType": "address",
					"name": "",
					"type": "address"
				}
			],
			"stateMutability": "view",
			"type": "function"
		},
		{
			"inputs": [],
			"name": "pause",
			"outputs": [],
			"stateMutability": "nonpayable",
			"type": "function"
		},
		{
			"inputs": [],
			"name": "paused",
			"outputs": [
				{
					"internalType": "bool",
					"name": "",
					"type": "bool"
				}
			],
			"stateMutability": "view",
			"type": "function"
		},
		{
			"inputs": [
				{
					"internalType": "uint256",
					"name": "quantity",
					"type": "uint256"
				},
				{
					"internalType": "bytes32",
					"name": "hash",
					"type": "bytes32"
				},
				{
					"internalType": "bytes",
					"name": "signature",
					"type": "bytes"
				}
			],
			"name": "preSale",
			"outputs": [],
			"stateMutability": "payable",
			"type": "function"
		},
		{
			"inputs": [
				{
					"internalType": "bytes32",
					"name": "hash",
					"type": "bytes32"
				},
				{
					"internalType": "bytes",
					"name": "signature",
					"type": "bytes"
				}
			],
			"name": "recoverSigner",
			"outputs": [
				{
					"internalType": "address",
					"name": "",
					"type": "address"
				}
			],
			"stateMutability": "pure",
			"type": "function"
		},
		{
			"inputs": [],
			"name": "renounceOwnership",
			"outputs": [],
			"stateMutability": "nonpayable",
			"type": "function"
		},
		{
			"inputs": [
				{
					"internalType": "address",
					"name": "from",
					"type": "address"
				},
				{
					"internalType": "address",
					"name": "to",
					"type": "address"
				},
				{
					"internalType": "uint256",
					"name": "tokenId",
					"type": "uint256"
				}
			],
			"name": "safeTransferFrom",
			"outputs": [],
			"stateMutability": "payable",
			"type": "function"
		},
		{
			"inputs": [
				{
					"internalType": "address",
					"name": "from",
					"type": "address"
				},
				{
					"internalType": "address",
					"name": "to",
					"type": "address"
				},
				{
					"internalType": "uint256",
					"name": "tokenId",
					"type": "uint256"
				},
				{
					"internalType": "bytes",
					"name": "_data",
					"type": "bytes"
				}
			],
			"name": "safeTransferFrom",
			"outputs": [],
			"stateMutability": "payable",
			"type": "function"
		},
		{
			"inputs": [
				{
					"internalType": "address",
					"name": "operator",
					"type": "address"
				},
				{
					"internalType": "bool",
					"name": "approved",
					"type": "bool"
				}
			],
			"name": "setApprovalForAll",
			"outputs": [],
			"stateMutability": "nonpayable",
			"type": "function"
		},
		{
			"inputs": [
				{
					"internalType": "bytes",
					"name": "",
					"type": "bytes"
				}
			],
			"name": "signatureUsed",
			"outputs": [
				{
					"internalType": "bool",
					"name": "",
					"type": "bool"
				}
			],
			"stateMutability": "view",
			"type": "function"
		},
		{
			"inputs": [
				{
					"internalType": "bytes4",
					"name": "interfaceId",
					"type": "bytes4"
				}
			],
			"name": "supportsInterface",
			"outputs": [
				{
					"internalType": "bool",
					"name": "",
					"type": "bool"
				}
			],
			"stateMutability": "view",
			"type": "function"
		},
		{
			"inputs": [],
			"name": "symbol",
			"outputs": [
				{
					"internalType": "string",
					"name": "",
					"type": "string"
				}
			],
			"stateMutability": "view",
			"type": "function"
		},
		{
			"inputs": [
				{
					"internalType": "uint256",
					"name": "tokenId",
					"type": "uint256"
				}
			],
			"name": "tokenURI",
			"outputs": [
				{
					"internalType": "string",
					"name": "",
					"type": "string"
				}
			],
			"stateMutability": "view",
			"type": "function"
		},
		{
			"inputs": [],
			"name": "totalSupply",
			"outputs": [
				{
					"internalType": "uint256",
					"name": "",
					"type": "uint256"
				}
			],
			"stateMutability": "view",
			"type": "function"
		},
		{
			"inputs": [
				{
					"internalType": "address",
					"name": "from",
					"type": "address"
				},
				{
					"internalType": "address",
					"name": "to",
					"type": "address"
				},
				{
					"internalType": "uint256",
					"name": "tokenId",
					"type": "uint256"
				}
			],
			"name": "transferFrom",
			"outputs": [],
			"stateMutability": "payable",
			"type": "function"
		},
		{
			"inputs": [
				{
					"internalType": "address",
					"name": "newOwner",
					"type": "address"
				}
			],
			"name": "transferOwnership",
			"outputs": [],
			"stateMutability": "nonpayable",
			"type": "function"
		},
		{
			"inputs": [],
			"name": "unpause",
			"outputs": [],
			"stateMutability": "nonpayable",
			"type": "function"
		},
		{
			"inputs": [],
			"name": "withdraw",
			"outputs": [],
			"stateMutability": "nonpayable",
			"type": "function"
		}
	],
	"bytecode": "0x60806040523480156200001157600080fd5b50604051620048b4380380620048b4833981810160405281019062000037919062000543565b6040518060400160405280600e81526020017f5465616d205468726565204e46540000000000000000000000000000000000008152506040518060400160405280600881526020017f54485245454e46540000000000000000000000000000000000000000000000008152508160029081620000b49190620007f4565b508060039081620000c69190620007f4565b50620000d76200019760201b60201c565b6000819055505050620000ff620000f36200019c60201b60201c565b620001a460201b60201c565b6000600860146101000a81548160ff02191690831515021790555081600a90816200012b9190620007f4565b5080600960006101000a81548173ffffffffffffffffffffffffffffffffffffffff021916908373ffffffffffffffffffffffffffffffffffffffff16021790555062015180600d819055506064600c819055506200018f6200026a60201b60201c565b50506200098c565b600090565b600033905090565b6000600860009054906101000a900473ffffffffffffffffffffffffffffffffffffffff16905081600860006101000a81548173ffffffffffffffffffffffffffffffffffffffff021916908373ffffffffffffffffffffffffffffffffffffffff1602179055508173ffffffffffffffffffffffffffffffffffffffff168173ffffffffffffffffffffffffffffffffffffffff167f8be0079c531659141344cd1fd0a4f28419497f9722a3daafe3b4186f6b6457e060405160405180910390a35050565b6200027a620002df60201b60201c565b6001600860146101000a81548160ff0219169083151502179055507f62e78cea01bee320cd4e420270b5ea74000d11b0c9f74754ebdbfc544b05a258620002c66200019c60201b60201c565b604051620002d59190620008ec565b60405180910390a1565b620002ef6200033460201b60201c565b1562000332576040517f08c379a000000000000000000000000000000000000000000000000000000000815260040162000329906200096a565b60405180910390fd5b565b6000600860149054906101000a900460ff16905090565b6000604051905090565b600080fd5b600080fd5b600080fd5b600080fd5b6000601f19601f8301169050919050565b7f4e487b7100000000000000000000000000000000000000000000000000000000600052604160045260246000fd5b620003b48262000369565b810181811067ffffffffffffffff82111715620003d657620003d56200037a565b5b80604052505050565b6000620003eb6200034b565b9050620003f98282620003a9565b919050565b600067ffffffffffffffff8211156200041c576200041b6200037a565b5b620004278262000369565b9050602081019050919050565b60005b838110156200045457808201518184015260208101905062000437565b60008484015250505050565b6000620004776200047184620003fe565b620003df565b90508281526020810184848401111562000496576200049562000364565b5b620004a384828562000434565b509392505050565b600082601f830112620004c357620004c26200035f565b5b8151620004d584826020860162000460565b91505092915050565b600073ffffffffffffffffffffffffffffffffffffffff82169050919050565b60006200050b82620004de565b9050919050565b6200051d81620004fe565b81146200052957600080fd5b50565b6000815190506200053d8162000512565b92915050565b600080604083850312156200055d576200055c62000355565b5b600083015167ffffffffffffffff8111156200057e576200057d6200035a565b5b6200058c85828601620004ab565b92505060206200059f858286016200052c565b9150509250929050565b600081519050919050565b7f4e487b7100000000000000000000000000000000000000000000000000000000600052602260045260246000fd5b60006002820490506001821680620005fc57607f821691505b602082108103620006125762000611620005b4565b5b50919050565b60008190508160005260206000209050919050565b60006020601f8301049050919050565b600082821b905092915050565b6000600883026200067c7fffffffffffffffffffffffffffffffffffffffffffffffffffffffffffffffff826200063d565b6200068886836200063d565b95508019841693508086168417925050509392505050565b6000819050919050565b6000819050919050565b6000620006d5620006cf620006c984620006a0565b620006aa565b620006a0565b9050919050565b6000819050919050565b620006f183620006b4565b620007096200070082620006dc565b8484546200064a565b825550505050565b600090565b6200072062000711565b6200072d818484620006e6565b505050565b5b8181101562000755576200074960008262000716565b60018101905062000733565b5050565b601f821115620007a4576200076e8162000618565b62000779846200062d565b8101602085101562000789578190505b620007a162000798856200062d565b83018262000732565b50505b505050565b600082821c905092915050565b6000620007c960001984600802620007a9565b1980831691505092915050565b6000620007e48383620007b6565b9150826002028217905092915050565b620007ff82620005a9565b67ffffffffffffffff8111156200081b576200081a6200037a565b5b620008278254620005e3565b6200083482828562000759565b600060209050601f8311600181146200086c576000841562000857578287015190505b620008638582620007d6565b865550620008d3565b601f1984166200087c8662000618565b60005b82811015620008a6578489015182556001820191506020850194506020810190506200087f565b86831015620008c65784890151620008c2601f891682620007b6565b8355505b6001600288020188555050505b505050505050565b620008e681620004fe565b82525050565b6000602082019050620009036000830184620008db565b92915050565b600082825260208201905092915050565b7f5061757361626c653a2070617573656400000000000000000000000000000000600082015250565b60006200095260108362000909565b91506200095f826200091a565b602082019050919050565b60006020820190508181036000830152620009858162000943565b9050919050565b613f18806200099c6000396000f3fe6080604052600436106101d85760003560e01c80636352211e11610102578063a0712d6811610095578063c87b56dd11610064578063c87b56dd14610610578063d547cfb71461064d578063e985e9c514610678578063f2fde38b146106b5576101d8565b8063a0712d6814610572578063a22cb4651461058e578063b88d4fde146105b7578063bb10c829146105d3576101d8565b80638d859f3e116100d15780638d859f3e146104b45780638da5cb5b146104df57806395d89b411461050a57806397aba7f914610535576101d8565b80636352211e1461040c57806370a0823114610449578063715018a6146104865780638456cb591461049d576101d8565b80632cb25ecc1161017a5780633f4ba83a116101495780633f4ba83a1461038557806342842e0e1461039c5780635c975abb146103b85780636209deb4146103e3576101d8565b80632cb25ecc1461031057806332cb6b0c1461032c578063372500ab146103575780633ccfd60b1461036e576101d8565b8063095ea7b3116101b6578063095ea7b31461028257806309d42b301461029e57806318160ddd146102c957806323b872dd146102f4576101d8565b806301ffc9a7146101dd57806306fdde031461021a578063081812fc14610245575b600080fd5b3480156101e957600080fd5b5061020460048036038101906101ff91906128c5565b6106de565b604051610211919061290d565b60405180910390f35b34801561022657600080fd5b5061022f610770565b60405161023c91906129b8565b60405180910390f35b34801561025157600080fd5b5061026c60048036038101906102679190612a10565b610802565b6040516102799190612a7e565b60405180910390f35b61029c60048036038101906102979190612ac5565b610881565b005b3480156102aa57600080fd5b506102b36109c5565b6040516102c09190612b14565b60405180910390f35b3480156102d557600080fd5b506102de6109ca565b6040516102eb9190612b14565b60405180910390f35b61030e60048036038101906103099190612b2f565b6109e1565b005b61032a60048036038101906103259190612ced565b610d03565b005b34801561033857600080fd5b50610341610f57565b60405161034e9190612b14565b60405180910390f35b34801561036357600080fd5b5061036c610f5d565b005b34801561037a57600080fd5b50610383610f5f565b005b34801561039157600080fd5b5061039a610fb6565b005b6103b660048036038101906103b19190612b2f565b610fc8565b005b3480156103c457600080fd5b506103cd610fe8565b6040516103da919061290d565b60405180910390f35b3480156103ef57600080fd5b5061040a60048036038101906104059190612dbc565b610fff565b005b34801561041857600080fd5b50610433600480360381019061042e9190612a10565b611475565b6040516104409190612a7e565b60405180910390f35b34801561045557600080fd5b50610470600480360381019061046b9190612e44565b611487565b60405161047d9190612b14565b60405180910390f35b34801561049257600080fd5b5061049b61153f565b005b3480156104a957600080fd5b506104b2611553565b005b3480156104c057600080fd5b506104c9611565565b6040516104d69190612b14565b60405180910390f35b3480156104eb57600080fd5b506104f4611570565b6040516105019190612a7e565b60405180910390f35b34801561051657600080fd5b5061051f61159a565b60405161052c91906129b8565b60405180910390f35b34801561054157600080fd5b5061055c60048036038101906105579190612e71565b61162c565b6040516105699190612a7e565b60405180910390f35b61058c60048036038101906105879190612a10565b61166b565b005b34801561059a57600080fd5b506105b560048036038101906105b09190612ef9565b6117d8565b005b6105d160048036038101906105cc9190612f39565b6118e3565b005b3480156105df57600080fd5b506105fa60048036038101906105f59190612fbc565b611956565b604051610607919061290d565b60405180910390f35b34801561061c57600080fd5b5061063760048036038101906106329190612a10565b61198c565b60405161064491906129b8565b60405180910390f35b34801561065957600080fd5b50610662611a2a565b60405161066f91906129b8565b60405180910390f35b34801561068457600080fd5b5061069f600480360381019061069a9190613005565b611ab8565b6040516106ac919061290d565b60405180910390f35b3480156106c157600080fd5b506106dc60048036038101906106d79190612e44565b611b4c565b005b60006301ffc9a760e01b827bffffffffffffffffffffffffffffffffffffffffffffffffffffffff1916148061073957506380ac58cd60e01b827bffffffffffffffffffffffffffffffffffffffffffffffffffffffff1916145b806107695750635b5e139f60e01b827bffffffffffffffffffffffffffffffffffffffffffffffffffffffff1916145b9050919050565b60606002805461077f90613074565b80601f01602080910402602001604051908101604052809291908181526020018280546107ab90613074565b80156107f85780601f106107cd576101008083540402835291602001916107f8565b820191906000526020600020905b8154815290600101906020018083116107db57829003601f168201915b5050505050905090565b600061080d82611bcf565b610843576040517fcf4700e400000000000000000000000000000000000000000000000000000000815260040160405180910390fd5b6006600083815260200190815260200160002060000160009054906101000a900473ffffffffffffffffffffffffffffffffffffffff169050919050565b600061088c82611475565b90508073ffffffffffffffffffffffffffffffffffffffff166108ad611c2e565b73ffffffffffffffffffffffffffffffffffffffff1614610910576108d9816108d4611c2e565b611ab8565b61090f576040517fcfb3b94200000000000000000000000000000000000000000000000000000000815260040160405180910390fd5b5b826006600084815260200190815260200160002060000160006101000a81548173ffffffffffffffffffffffffffffffffffffffff021916908373ffffffffffffffffffffffffffffffffffffffff160217905550818373ffffffffffffffffffffffffffffffffffffffff168273ffffffffffffffffffffffffffffffffffffffff167f8c5be1e5ebec7d5bd14f71427d1e84f3dd0314c0f7b2291e5b200ac8c7c3b92560405160405180910390a4505050565b600581565b60006109d4611c36565b6001546000540303905090565b60006109ec82611c3b565b90508373ffffffffffffffffffffffffffffffffffffffff168173ffffffffffffffffffffffffffffffffffffffff1614610a53576040517fa114810000000000000000000000000000000000000000000000000000000000815260040160405180910390fd5b600080610a5f84611d07565b91509150610a758187610a70611c2e565b611d2e565b610ac157610a8a86610a85611c2e565b611ab8565b610ac0576040517f59c896be00000000000000000000000000000000000000000000000000000000815260040160405180910390fd5b5b600073ffffffffffffffffffffffffffffffffffffffff168573ffffffffffffffffffffffffffffffffffffffff1603610b27576040517fea553b3400000000000000000000000000000000000000000000000000000000815260040160405180910390fd5b610b348686866001611d72565b8015610b3f57600082555b600560008773ffffffffffffffffffffffffffffffffffffffff1673ffffffffffffffffffffffffffffffffffffffff168152602001908152602001600020600081546001900391905081905550600560008673ffffffffffffffffffffffffffffffffffffffff1673ffffffffffffffffffffffffffffffffffffffff1681526020019081526020016000206000815460010191905081905550610c0d85610be9888887611d78565b7c020000000000000000000000000000000000000000000000000000000017611da0565b600460008681526020019081526020016000208190555060007c0200000000000000000000000000000000000000000000000000000000841603610c935760006001850190506000600460008381526020019081526020016000205403610c91576000548114610c90578360046000838152602001908152602001600020819055505b5b505b838573ffffffffffffffffffffffffffffffffffffffff168773ffffffffffffffffffffffffffffffffffffffff167fddf252ad1be2c89b69c2b068fc378daa952ba7f163c4a11628f55a4df523b3ef60405160405180910390a4610cfb8686866001611dcb565b505050505050565b6000600b549050612710610d208583611dd190919063ffffffff16565b1115610d61576040517f08c379a0000000000000000000000000000000000000000000000000000000008152600401610d58906130f1565b60405180910390fd5b600084118015610d72575060058411155b610db1576040517f08c379a0000000000000000000000000000000000000000000000000000000008152600401610da890613183565b60405180910390fd5b610dcb846611c37937e08000611de790919063ffffffff16565b341015610e0d576040517f08c379a0000000000000000000000000000000000000000000000000000000008152600401610e0490613215565b60405180910390fd5b610e15611570565b73ffffffffffffffffffffffffffffffffffffffff16610e35848461162c565b73ffffffffffffffffffffffffffffffffffffffff1614610e8b576040517f08c379a0000000000000000000000000000000000000000000000000000000008152600401610e8290613281565b60405180910390fd5b600e82604051610e9b91906132e8565b908152602001604051809103902060009054906101000a900460ff1615610ef7576040517f08c379a0000000000000000000000000000000000000000000000000000000008152600401610eee9061334b565b60405180910390fd5b83600b6000828254610f09919061339a565b92505081905550610f1a3385611dfd565b6001600e83604051610f2c91906132e8565b908152602001604051809103902060006101000a81548160ff02191690831515021790555050505050565b61271081565b565b610f67611e1b565b60004790503373ffffffffffffffffffffffffffffffffffffffff166108fc829081150290604051600060405180830381858888f19350505050158015610fb2573d6000803e3d6000fd5b5050565b610fbe611e1b565b610fc6611e99565b565b610fe3838383604051806020016040528060008152506118e3565b505050565b6000600860149054906101000a900460ff16905090565b6000338686866040516020016110189493929190613437565b604051602081830303815290604052805190602001209050600061103b82611efc565b9050600061108d8286868080601f016020809104026020016040519081016040528093929190818152602001838380828437600081840152601f19601f82011690508083019250505050505050611f32565b90508073ffffffffffffffffffffffffffffffffffffffff166110ae611570565b73ffffffffffffffffffffffffffffffffffffffff1614611104576040517f08c379a00000000000000000000000000000000000000000000000000000000081526004016110fb906134d1565b60405180910390fd5b600e8585604051611116929190613516565b908152602001604051809103902060009054906101000a900460ff1615611172576040517f08c379a00000000000000000000000000000000000000000000000000000000081526004016111699061334b565b60405180910390fd5b6001600e8686604051611186929190613516565b908152602001604051809103902060006101000a81548160ff0219169083151502179055506000600f60003373ffffffffffffffffffffffffffffffffffffffff1673ffffffffffffffffffffffffffffffffffffffff16815260200190815260200160002060008a81526020019081526020016000205490506000811115611258578681611215919061339a565b421015611257576040517f08c379a000000000000000000000000000000000000000000000000000000000815260040161124e9061357b565b60405180910390fd5b5b87600960009054906101000a900473ffffffffffffffffffffffffffffffffffffffff1673ffffffffffffffffffffffffffffffffffffffff166370a08231306040518263ffffffff1660e01b81526004016112b49190612a7e565b602060405180830381865afa1580156112d1573d6000803e3d6000fd5b505050506040513d601f19601f820116820180604052508101906112f591906135b0565b1015611336576040517f08c379a000000000000000000000000000000000000000000000000000000000815260040161132d9061364f565b60405180910390fd5b42600f60003373ffffffffffffffffffffffffffffffffffffffff1673ffffffffffffffffffffffffffffffffffffffff16815260200190815260200160002060008b815260200190815260200160002081905550600960009054906101000a900473ffffffffffffffffffffffffffffffffffffffff1673ffffffffffffffffffffffffffffffffffffffff1663a9059cbb338a6040518363ffffffff1660e01b81526004016113e892919061366f565b6020604051808303816000875af1158015611407573d6000803e3d6000fd5b505050506040513d601f19601f8201168201806040525081019061142b91906136ad565b61146a576040517f08c379a000000000000000000000000000000000000000000000000000000000815260040161146190613726565b60405180910390fd5b505050505050505050565b600061148082611c3b565b9050919050565b60008073ffffffffffffffffffffffffffffffffffffffff168273ffffffffffffffffffffffffffffffffffffffff16036114ee576040517f8f4eb60400000000000000000000000000000000000000000000000000000000815260040160405180910390fd5b67ffffffffffffffff600560008473ffffffffffffffffffffffffffffffffffffffff1673ffffffffffffffffffffffffffffffffffffffff16815260200190815260200160002054169050919050565b611547611e1b565b6115516000611f59565b565b61155b611e1b565b61156361201f565b565b6611c37937e0800081565b6000600860009054906101000a900473ffffffffffffffffffffffffffffffffffffffff16905090565b6060600380546115a990613074565b80601f01602080910402602001604051908101604052809291908181526020018280546115d590613074565b80156116225780601f106115f757610100808354040283529160200191611622565b820191906000526020600020905b81548152906001019060200180831161160557829003601f168201915b5050505050905090565b6000808360405160200161164091906137be565b6040516020818303038152906040528051906020012090506116628184611f32565b91505092915050565b611673612082565b600081116116b6576040517f08c379a00000000000000000000000000000000000000000000000000000000081526004016116ad90613830565b60405180910390fd5b60006116c06109ca565b90506005821115611706576040517f08c379a00000000000000000000000000000000000000000000000000000000081526004016116fd9061389c565b60405180910390fd5b61271061171c8383611dd190919063ffffffff16565b1061175c576040517f08c379a000000000000000000000000000000000000000000000000000000000815260040161175390613908565b60405180910390fd5b34826611c37937e080006117709190613928565b11156117b1576040517f08c379a00000000000000000000000000000000000000000000000000000000081526004016117a8906139b6565b60405180910390fd5b81600b60008282546117c3919061339a565b925050819055506117d43383611dfd565b5050565b80600760006117e5611c2e565b73ffffffffffffffffffffffffffffffffffffffff1673ffffffffffffffffffffffffffffffffffffffff16815260200190815260200160002060008473ffffffffffffffffffffffffffffffffffffffff1673ffffffffffffffffffffffffffffffffffffffff16815260200190815260200160002060006101000a81548160ff0219169083151502179055508173ffffffffffffffffffffffffffffffffffffffff16611892611c2e565b73ffffffffffffffffffffffffffffffffffffffff167f17307eab39ab6107e8899845ad3d59bd9653f200f220920489ca2b5937696c31836040516118d7919061290d565b60405180910390a35050565b6118ee8484846109e1565b60008373ffffffffffffffffffffffffffffffffffffffff163b1461195057611919848484846120cc565b61194f576040517fd1a57ed600000000000000000000000000000000000000000000000000000000815260040160405180910390fd5b5b50505050565b600e818051602081018201805184825260208301602085012081835280955050505050506000915054906101000a900460ff1681565b606061199782611bcf565b6119cd576040517fa14c4b5000000000000000000000000000000000000000000000000000000000815260040160405180910390fd5b60006119d761221c565b905060008151036119f75760405180602001604052806000815250611a22565b80611a01846122ae565b604051602001611a12929190613a07565b6040516020818303038152906040525b915050919050565b600a8054611a3790613074565b80601f0160208091040260200160405190810160405280929190818152602001828054611a6390613074565b8015611ab05780601f10611a8557610100808354040283529160200191611ab0565b820191906000526020600020905b815481529060010190602001808311611a9357829003601f168201915b505050505081565b6000600760008473ffffffffffffffffffffffffffffffffffffffff1673ffffffffffffffffffffffffffffffffffffffff16815260200190815260200160002060008373ffffffffffffffffffffffffffffffffffffffff1673ffffffffffffffffffffffffffffffffffffffff16815260200190815260200160002060009054906101000a900460ff16905092915050565b611b54611e1b565b600073ffffffffffffffffffffffffffffffffffffffff168173ffffffffffffffffffffffffffffffffffffffff1603611bc3576040517f08c379a0000000000000000000000000000000000000000000000000000000008152600401611bba90613a9d565b60405180910390fd5b611bcc81611f59565b50565b600081611bda611c36565b11158015611be9575060005482105b8015611c27575060007c0100000000000000000000000000000000000000000000000000000000600460008581526020019081526020016000205416145b9050919050565b600033905090565b600090565b60008082905080611c4a611c36565b11611cd057600054811015611ccf5760006004600083815260200190815260200160002054905060007c0100000000000000000000000000000000000000000000000000000000821603611ccd575b60008103611cc3576004600083600190039350838152602001908152602001600020549050611c99565b8092505050611d02565b505b5b6040517fdf2d9b4200000000000000000000000000000000000000000000000000000000815260040160405180910390fd5b919050565b60008060006006600085815260200190815260200160002090508092508254915050915091565b600073ffffffffffffffffffffffffffffffffffffffff8316925073ffffffffffffffffffffffffffffffffffffffff821691508382148383141790509392505050565b50505050565b60008060e883901c905060e8611d8f8686846122fe565b62ffffff16901b9150509392505050565b600073ffffffffffffffffffffffffffffffffffffffff83169250814260a01b178317905092915050565b50505050565b60008183611ddf919061339a565b905092915050565b60008183611df59190613928565b905092915050565b611e17828260405180602001604052806000815250612307565b5050565b611e236123a4565b73ffffffffffffffffffffffffffffffffffffffff16611e41611570565b73ffffffffffffffffffffffffffffffffffffffff1614611e97576040517f08c379a0000000000000000000000000000000000000000000000000000000008152600401611e8e90613b09565b60405180910390fd5b565b611ea16123ac565b6000600860146101000a81548160ff0219169083151502179055507f5db9ee0a495bf2e6ff9c91a7834c1ba4fdd244a5e8aa4e537bd38aeae4b073aa611ee56123a4565b604051611ef29190612a7e565b60405180910390a1565b60007f19457468657265756d205369676e6564204d6573736167653a0a33320000000060005281601c52603c6000209050919050565b6000806000611f4185856123f5565b91509150611f4e81612446565b819250505092915050565b6000600860009054906101000a900473ffffffffffffffffffffffffffffffffffffffff16905081600860006101000a81548173ffffffffffffffffffffffffffffffffffffffff021916908373ffffffffffffffffffffffffffffffffffffffff1602179055508173ffffffffffffffffffffffffffffffffffffffff168173ffffffffffffffffffffffffffffffffffffffff167f8be0079c531659141344cd1fd0a4f28419497f9722a3daafe3b4186f6b6457e060405160405180910390a35050565b612027612082565b6001600860146101000a81548160ff0219169083151502179055507f62e78cea01bee320cd4e420270b5ea74000d11b0c9f74754ebdbfc544b05a25861206b6123a4565b6040516120789190612a7e565b60405180910390a1565b61208a610fe8565b156120ca576040517f08c379a00000000000000000000000000000000000000000000000000000000081526004016120c190613b75565b60405180910390fd5b565b60008373ffffffffffffffffffffffffffffffffffffffff1663150b7a026120f2611c2e565b8786866040518563ffffffff1660e01b81526004016121149493929190613bdf565b6020604051808303816000875af192505050801561215057506040513d601f19601f8201168201806040525081019061214d9190613c40565b60015b6121c9573d8060008114612180576040519150601f19603f3d011682016040523d82523d6000602084013e612185565b606091505b5060008151036121c1576040517fd1a57ed600000000000000000000000000000000000000000000000000000000815260040160405180910390fd5b805181602001fd5b63150b7a0260e01b7bffffffffffffffffffffffffffffffffffffffffffffffffffffffff1916817bffffffffffffffffffffffffffffffffffffffffffffffffffffffff191614915050949350505050565b6060600a805461222b90613074565b80601f016020809104026020016040519081016040528092919081815260200182805461225790613074565b80156122a45780601f10612279576101008083540402835291602001916122a4565b820191906000526020600020905b81548152906001019060200180831161228757829003601f168201915b5050505050905090565b606060a060405101806040526020810391506000825281835b6001156122e957600184039350600a81066030018453600a81049050806122c7575b50828103602084039350808452505050919050565b60009392505050565b61231183836125ac565b60008373ffffffffffffffffffffffffffffffffffffffff163b1461239f57600080549050600083820390505b61235160008683806001019450866120cc565b612387576040517fd1a57ed600000000000000000000000000000000000000000000000000000000815260040160405180910390fd5b81811061233e57816000541461239c57600080fd5b50505b505050565b600033905090565b6123b4610fe8565b6123f3576040517f08c379a00000000000000000000000000000000000000000000000000000000081526004016123ea90613cb9565b60405180910390fd5b565b60008060418351036124365760008060006020860151925060408601519150606086015160001a905061242a87828585612767565b9450945050505061243f565b60006002915091505b9250929050565b6000600481111561245a57612459613cd9565b5b81600481111561246d5761246c613cd9565b5b03156125a9576001600481111561248757612486613cd9565b5b81600481111561249a57612499613cd9565b5b036124da576040517f08c379a00000000000000000000000000000000000000000000000000000000081526004016124d190613d54565b60405180910390fd5b600260048111156124ee576124ed613cd9565b5b81600481111561250157612500613cd9565b5b03612541576040517f08c379a000000000000000000000000000000000000000000000000000000000815260040161253890613dc0565b60405180910390fd5b6003600481111561255557612554613cd9565b5b81600481111561256857612567613cd9565b5b036125a8576040517f08c379a000000000000000000000000000000000000000000000000000000000815260040161259f90613e52565b60405180910390fd5b5b50565b600080549050600082036125ec576040517fb562e8dd00000000000000000000000000000000000000000000000000000000815260040160405180910390fd5b6125f96000848385611d72565b600160406001901b178202600560008573ffffffffffffffffffffffffffffffffffffffff1673ffffffffffffffffffffffffffffffffffffffff16815260200190815260200160002060008282540192505081905550612670836126616000866000611d78565b61266a85612849565b17611da0565b6004600083815260200190815260200160002081905550600080838301905073ffffffffffffffffffffffffffffffffffffffff85169150828260007fddf252ad1be2c89b69c2b068fc378daa952ba7f163c4a11628f55a4df523b3ef600080a4600183015b81811461271157808360007fddf252ad1be2c89b69c2b068fc378daa952ba7f163c4a11628f55a4df523b3ef600080a46001810190506126d6565b506000820361274c576040517f2e07630000000000000000000000000000000000000000000000000000000000815260040160405180910390fd5b8060008190555050506127626000848385611dcb565b505050565b6000807f7fffffffffffffffffffffffffffffff5d576e7357a4501ddfe92f46681b20a08360001c11156127a2576000600391509150612840565b6000600187878787604051600081526020016040526040516127c79493929190613e9d565b6020604051602081039080840390855afa1580156127e9573d6000803e3d6000fd5b505050602060405103519050600073ffffffffffffffffffffffffffffffffffffffff168173ffffffffffffffffffffffffffffffffffffffff160361283757600060019250925050612840565b80600092509250505b94509492505050565b60006001821460e11b9050919050565b6000604051905090565b600080fd5b600080fd5b60007fffffffff0000000000000000000000000000000000000000000000000000000082169050919050565b6128a28161286d565b81146128ad57600080fd5b50565b6000813590506128bf81612899565b92915050565b6000602082840312156128db576128da612863565b5b60006128e9848285016128b0565b91505092915050565b60008115159050919050565b612907816128f2565b82525050565b600060208201905061292260008301846128fe565b92915050565b600081519050919050565b600082825260208201905092915050565b60005b83811015612962578082015181840152602081019050612947565b60008484015250505050565b6000601f19601f8301169050919050565b600061298a82612928565b6129948185612933565b93506129a4818560208601612944565b6129ad8161296e565b840191505092915050565b600060208201905081810360008301526129d2818461297f565b905092915050565b6000819050919050565b6129ed816129da565b81146129f857600080fd5b50565b600081359050612a0a816129e4565b92915050565b600060208284031215612a2657612a25612863565b5b6000612a34848285016129fb565b91505092915050565b600073ffffffffffffffffffffffffffffffffffffffff82169050919050565b6000612a6882612a3d565b9050919050565b612a7881612a5d565b82525050565b6000602082019050612a936000830184612a6f565b92915050565b612aa281612a5d565b8114612aad57600080fd5b50565b600081359050612abf81612a99565b92915050565b60008060408385031215612adc57612adb612863565b5b6000612aea85828601612ab0565b9250506020612afb858286016129fb565b9150509250929050565b612b0e816129da565b82525050565b6000602082019050612b296000830184612b05565b92915050565b600080600060608486031215612b4857612b47612863565b5b6000612b5686828701612ab0565b9350506020612b6786828701612ab0565b9250506040612b78868287016129fb565b9150509250925092565b6000819050919050565b612b9581612b82565b8114612ba057600080fd5b50565b600081359050612bb281612b8c565b92915050565b600080fd5b600080fd5b7f4e487b7100000000000000000000000000000000000000000000000000000000600052604160045260246000fd5b612bfa8261296e565b810181811067ffffffffffffffff82111715612c1957612c18612bc2565b5b80604052505050565b6000612c2c612859565b9050612c388282612bf1565b919050565b600067ffffffffffffffff821115612c5857612c57612bc2565b5b612c618261296e565b9050602081019050919050565b82818337600083830152505050565b6000612c90612c8b84612c3d565b612c22565b905082815260208101848484011115612cac57612cab612bbd565b5b612cb7848285612c6e565b509392505050565b600082601f830112612cd457612cd3612bb8565b5b8135612ce4848260208601612c7d565b91505092915050565b600080600060608486031215612d0657612d05612863565b5b6000612d14868287016129fb565b9350506020612d2586828701612ba3565b925050604084013567ffffffffffffffff811115612d4657612d45612868565b5b612d5286828701612cbf565b9150509250925092565b600080fd5b600080fd5b60008083601f840112612d7c57612d7b612bb8565b5b8235905067ffffffffffffffff811115612d9957612d98612d5c565b5b602083019150836001820283011115612db557612db4612d61565b5b9250929050565b600080600080600060808688031215612dd857612dd7612863565b5b6000612de6888289016129fb565b9550506020612df7888289016129fb565b9450506040612e08888289016129fb565b935050606086013567ffffffffffffffff811115612e2957612e28612868565b5b612e3588828901612d66565b92509250509295509295909350565b600060208284031215612e5a57612e59612863565b5b6000612e6884828501612ab0565b91505092915050565b60008060408385031215612e8857612e87612863565b5b6000612e9685828601612ba3565b925050602083013567ffffffffffffffff811115612eb757612eb6612868565b5b612ec385828601612cbf565b9150509250929050565b612ed6816128f2565b8114612ee157600080fd5b50565b600081359050612ef381612ecd565b92915050565b60008060408385031215612f1057612f0f612863565b5b6000612f1e85828601612ab0565b9250506020612f2f85828601612ee4565b9150509250929050565b60008060008060808587031215612f5357612f52612863565b5b6000612f6187828801612ab0565b9450506020612f7287828801612ab0565b9350506040612f83878288016129fb565b925050606085013567ffffffffffffffff811115612fa457612fa3612868565b5b612fb087828801612cbf565b91505092959194509250565b600060208284031215612fd257612fd1612863565b5b600082013567ffffffffffffffff811115612ff057612fef612868565b5b612ffc84828501612cbf565b91505092915050565b6000806040838503121561301c5761301b612863565b5b600061302a85828601612ab0565b925050602061303b85828601612ab0565b9150509250929050565b7f4e487b7100000000000000000000000000000000000000000000000000000000600052602260045260246000fd5b6000600282049050600182168061308c57607f821691505b60208210810361309f5761309e613045565b5b50919050565b7f4e6f7420656e6f756768204e465473206c656674210000000000000000000000600082015250565b60006130db601583612933565b91506130e6826130a5565b602082019050919050565b6000602082019050818103600083015261310a816130ce565b9050919050565b7f43616e6e6f74206d696e7420737065636966696564206e756d626572206f662060008201527f4e4654732e000000000000000000000000000000000000000000000000000000602082015250565b600061316d602583612933565b915061317882613111565b604082019050919050565b6000602082019050818103600083015261319c81613160565b9050919050565b7f4e6f7420656e6f75676820657468657220746f207075726368617365204e465460008201527f732e000000000000000000000000000000000000000000000000000000000000602082015250565b60006131ff602283612933565b915061320a826131a3565b604082019050919050565b6000602082019050818103600083015261322e816131f2565b9050919050565b7f41646472657373206973206e6f7420616c6c6f776c6973746564000000000000600082015250565b600061326b601a83612933565b915061327682613235565b602082019050919050565b6000602082019050818103600083015261329a8161325e565b9050919050565b600081519050919050565b600081905092915050565b60006132c2826132a1565b6132cc81856132ac565b93506132dc818560208601612944565b80840191505092915050565b60006132f482846132b7565b915081905092915050565b7f5369676e61747572652068617320616c7265616479206265656e20757365642e600082015250565b6000613335602083612933565b9150613340826132ff565b602082019050919050565b6000602082019050818103600083015261336481613328565b9050919050565b7f4e487b7100000000000000000000000000000000000000000000000000000000600052601160045260246000fd5b60006133a5826129da565b91506133b0836129da565b92508282019050808211156133c8576133c761336b565b5b92915050565b60008160601b9050919050565b60006133e6826133ce565b9050919050565b60006133f8826133db565b9050919050565b61341061340b82612a5d565b6133ed565b82525050565b6000819050919050565b61343161342c826129da565b613416565b82525050565b600061344382876133ff565b6014820191506134538286613420565b6020820191506134638285613420565b6020820191506134738284613420565b60208201915081905095945050505050565b7f5369676e65722061646472657373206d6973736d617463680000000000000000600082015250565b60006134bb601883612933565b91506134c682613485565b602082019050919050565b600060208201905081810360008301526134ea816134ae565b9050919050565b60006134fd83856132ac565b935061350a838584612c6e565b82840190509392505050565b60006135238284866134f1565b91508190509392505050565b7f436f6f6c646f776e20706572696f6420686173206e6f74207061737365640000600082015250565b6000613565601e83612933565b91506135708261352f565b602082019050919050565b6000602082019050818103600083015261359481613558565b9050919050565b6000815190506135aa816129e4565b92915050565b6000602082840312156135c6576135c5612863565b5b60006135d48482850161359b565b91505092915050565b7f496e73756666696369656e74207265776172642062616c616e636520696e207460008201527f686520636f6e7472616374000000000000000000000000000000000000000000602082015250565b6000613639602b83612933565b9150613644826135dd565b604082019050919050565b600060208201905081810360008301526136688161362c565b9050919050565b60006040820190506136846000830185612a6f565b6136916020830184612b05565b9392505050565b6000815190506136a781612ecd565b92915050565b6000602082840312156136c3576136c2612863565b5b60006136d184828501613698565b91505092915050565b7f5472616e7366657220776173206e6f742073756363657366756c000000000000600082015250565b6000613710601a83612933565b915061371b826136da565b602082019050919050565b6000602082019050818103600083015261373f81613703565b9050919050565b600081905092915050565b7f19457468657265756d205369676e6564204d6573736167653a0a333200000000600082015250565b6000613787601c83613746565b915061379282613751565b601c82019050919050565b6000819050919050565b6137b86137b382612b82565b61379d565b82525050565b60006137c98261377a565b91506137d582846137a7565b60208201915081905092915050565b7f5175616e746974792063616e6e6f74206265207a65726f000000000000000000600082015250565b600061381a601783612933565b9150613825826137e4565b602082019050919050565b600060208201905081810360008301526138498161380d565b9050919050565b7f43616e6e6f74206d696e742074686174206d616e79206174206f6e6365000000600082015250565b6000613886601d83612933565b915061389182613850565b602082019050919050565b600060208201905081810360008301526138b581613879565b9050919050565b7f4e6f7420656e6f756768204e465473206c65667420746f206d696e7400000000600082015250565b60006138f2601c83612933565b91506138fd826138bc565b602082019050919050565b60006020820190508181036000830152613921816138e5565b9050919050565b6000613933826129da565b915061393e836129da565b925082820261394c816129da565b915082820484148315176139635761396261336b565b5b5092915050565b7f496e73756666696369656e742066756e64732073656e74000000000000000000600082015250565b60006139a0601783612933565b91506139ab8261396a565b602082019050919050565b600060208201905081810360008301526139cf81613993565b9050919050565b60006139e182612928565b6139eb8185613746565b93506139fb818560208601612944565b80840191505092915050565b6000613a1382856139d6565b9150613a1f82846139d6565b91508190509392505050565b7f4f776e61626c653a206e6577206f776e657220697320746865207a65726f206160008201527f6464726573730000000000000000000000000000000000000000000000000000602082015250565b6000613a87602683612933565b9150613a9282613a2b565b604082019050919050565b60006020820190508181036000830152613ab681613a7a565b9050919050565b7f4f776e61626c653a2063616c6c6572206973206e6f7420746865206f776e6572600082015250565b6000613af3602083612933565b9150613afe82613abd565b602082019050919050565b60006020820190508181036000830152613b2281613ae6565b9050919050565b7f5061757361626c653a2070617573656400000000000000000000000000000000600082015250565b6000613b5f601083612933565b9150613b6a82613b29565b602082019050919050565b60006020820190508181036000830152613b8e81613b52565b9050919050565b600082825260208201905092915050565b6000613bb1826132a1565b613bbb8185613b95565b9350613bcb818560208601612944565b613bd48161296e565b840191505092915050565b6000608082019050613bf46000830187612a6f565b613c016020830186612a6f565b613c0e6040830185612b05565b8181036060830152613c208184613ba6565b905095945050505050565b600081519050613c3a81612899565b92915050565b600060208284031215613c5657613c55612863565b5b6000613c6484828501613c2b565b91505092915050565b7f5061757361626c653a206e6f7420706175736564000000000000000000000000600082015250565b6000613ca3601483612933565b9150613cae82613c6d565b602082019050919050565b60006020820190508181036000830152613cd281613c96565b9050919050565b7f4e487b7100000000000000000000000000000000000000000000000000000000600052602160045260246000fd5b7f45434453413a20696e76616c6964207369676e61747572650000000000000000600082015250565b6000613d3e601883612933565b9150613d4982613d08565b602082019050919050565b60006020820190508181036000830152613d6d81613d31565b9050919050565b7f45434453413a20696e76616c6964207369676e6174757265206c656e67746800600082015250565b6000613daa601f83612933565b9150613db582613d74565b602082019050919050565b60006020820190508181036000830152613dd981613d9d565b9050919050565b7f45434453413a20696e76616c6964207369676e6174757265202773272076616c60008201527f7565000000000000000000000000000000000000000000000000000000000000602082015250565b6000613e3c602283612933565b9150613e4782613de0565b604082019050919050565b60006020820190508181036000830152613e6b81613e2f565b9050919050565b613e7b81612b82565b82525050565b600060ff82169050919050565b613e9781613e81565b82525050565b6000608082019050613eb26000830187613e72565b613ebf6020830186613e8e565b613ecc6040830185613e72565b613ed96060830184613e72565b9594505050505056fea2646970667358221220ad32066f65b74f87bb5db3e24e511c961cc15004e16653b17a14a1bd3df147ba64736f6c63430008120033",
	"linkReferences": {},
	"deployedLinkReferences": {}
}